:020000040000FA
:02000000422894
:08000800062805280B190B283E
:100010008B183B2809000B11201829207520772008
:1000200021182C2079207B2022182F207120892054
:100030007F2061202318322081208320241835203E
:10004000852087202518382071207D207320682086
:100050000900A00B09000800A10B09000800A20B71
:1000600009000800A30B09000800A40B0900080000
:10007000A50B090008008B106F20FF30A20005308F
:10008000A500090083160515851281131515831225
:100090000313870103179E019F018316031300308A
:1000A00087008730810083128B160B168B177D20FB
:1000B000872073208120792085207120612068208D
:1000C00005280330A0000230A1000130A200080082
:1000D0000330A3000230A4000130A50008008512FF
:1000E0000800851608008712080087160800071206
:1000F0000800071608008711080087150800071177
:10010000080007150800871008008714080007106A
:06011000080007140800BE
:02400E00C43FAD
:00000001FF
