:020000040000FA
:020000000528D1
:040002000034003492
:080008000728462006280B1909
:100010000C288B18332809000B11A00B09000130A4
:10002000A00059205B20A10B09000130A1005D2038
:100030005F20A20B09000130A20063206D20A30BFA
:1000400009000130A30065206720A40B09000130DE
:10005000A40069206B20A50B09000130A5006120D8
:100060005720392009008B104030A2004030A500F5
:1000700009002430A0001630A1000830A20024306E
:10008000A3001630A4000830A500080003179E0145
:100090009F0103138316003087000730810083120D
:1000A0008B160B168B17392057206B2008008712F0
:1000B00008008716080007120800071608008711B5
:1000C00008008715080007110800071508008710A9
:0E00D000080087140800071008000714080035
:02400E00C43FAD
:00000001FF
