:040000008A11112828
:10000800FE00030883120313A2000408A3000A08D1
:10001800A4007F08A5008A118C288A11D92803100A
:10002800003003180130F600F11F1B281C28252872
:10003800F009F109F00A0319F10AF6010314F60DA3
:100048002528F31F282829283228F209F309F20A5B
:100058000319F30A0130F4007408F6060030F700BB
:100068000030F8007108700403193B283C287A28EE
:10007800F5010314F50D4C2801300310F00DF10DB6
:10008800FF3E031D41280130F4007408F5074C2891
:10009800F11F4F28502840285228522801300310B9
:1000A800F70DF80DFF3E031D532871087302031D59
:1000B8005F2870087202031C622863286B28700886
:1000C800F2027108031CF303F30277146B28013062
:1000D8000310F10CF00CFF3E031D6C280130F502F3
:1000E800031D7728782852287A287A287608031D4D
:1000F8007E288428F709F809F70A0319F80A8428DA
:100108007808F101F1077708F001F0078B2808005B
:100118000C130230F0000030F1001E08A000A1010D
:100128002008F2002108F3008A1113208A117008B0
:100138007C3E831603139200FA301202031CA52892
:10014800A628A928F9309200A928831203139F141E
:100158002508FF0024088A00230884002208830059
:10016800FE0E7E0E0900831203179F0180309E0049
:10017800DF308316031387008601C0308B000C170D
:100188001D30831203139F001030831603139F0042
:10019800831203139F14053092000C3097001F3010
:1001A8009500D628D6288A11112883018A11B728E4
:02400E00C43CB0
:00000001FF
