:020000040000FA
:1000000020204B20552043204F20472053203520CF
:100010004B20412066204320452063204720492073
:10002000A40B69206C20352057204D2066204F20DE
:100030005120632053205520A40B69206C200728F1
:100040008316051585128113151583120313870175
:1000500003179E019F01831603130030870083124C
:1000600008000230A4003D2008000130A4003F2019
:1000700008004920552069200800851208008516CF
:1000800008008712080087160800071208000716E4
:1000900008008711080087150800071108000715D8
:1000A00008008710080087140800071008000714CC
:1000B00008006C20051D31206C20051D31206C20AE
:1000C000051D3120080059205920080063205920BF
:1000D0000800662063200800FF30A000A200A00BEB
:0800E0006F28A20B6F28080035
:02400E00C43FAD
:00000001FF
