:040000008A11AA2F88
:100F540083018A11AD2F0310003003180130F20011
:100F6400831203179F019E01831603138701F9302F
:100F7400920005308312031392000C3097001F3047
:100F84009500C42F1A30F100F830F000F00BC82F90
:100F9400F10BC82F64007208013A031DD22FD32F1E
:100FA400DA2F0130F0007008831603139207DA2F4A
:100FB400F208031DDE2FDF2FE42F01308316031305
:100FC4009202E42F831603131208F93A031DEB2F40
:100FD400EC2FF22F0310003003180130F200F22F2F
:100FE40012087C3A031DF72FF82FC42FF2010314C3
:0C0FF400F20DC42FC42FC42F8A11002856
:02400E00C43CB0
:00000001FF
