:040000008A11112828
:10000800FE000308FA000408FB000A08FC0083123B
:1000180003137F08FD008A11B9288A1162290B1180
:1000280071087004031919281A282228FF30F007CC
:100038000318F10AFF30F107912891288A115E21EF
:100048008A118A115A218A117308720403192D28FA
:100058002E283628FF30F2070318F30AFF30F3077B
:10006800912891288A1142218A118A1156218A11D0
:10007800750874040319412842284A28FF30F407F8
:100088000318F50AFF30F507912891288A115221A3
:100098008A118A114E218A11770876040319552886
:1000A80056285E28FF30F6070318F70AFF30F707CF
:1000B800912891288A113A218A118A114A218A1194
:1000C80079087804031969286A287228FF30F80724
:1000D8000318F90AFF30F907912891288A11362167
:1000E8008A118A1132218A118312031321082004EC
:1000F80003197F2880288828FF30A0070318A10A41
:10010800FF30A107912891288A113E218A118A116E
:1001180046218A118A11F1208A11080083120317D7
:100128009F019E01831603138701FF3085008730E6
:1001380081008B160B168B178A11D6208A118A110B
:100148001A218A118A112A218A118A112E218A11CB
:100158008A1126218A118A111E218A118A112221C7
:100168008A11B628B6288A1111280B1DBC28BD286B
:10017800C1288A1113208A11C1288B1CC428C528BC
:10018800C9288A110C218A11C9287D0883120313F2
:10019800FF007C088A007B0884007A088300FE0E32
:1001A8007E0E09001830F0000030F1001030F20027
:1001B8000030F3000830F4000030F5001830F60085
:1001C8000030F7001030F8000030F90008308312D2
:1001D8000313A0000030A10008001830F000003020
:1001E800F1001030F2000030F3000830F400003065
:1001F800F5001830F6000030F7001030F800003035
:10020800F900083083120313A0000030A100080091
:100218008B10283083120313A0000030A10021089E
:10022800F501F5072008F401F40708008312031309
:10023800871208008312031387150800831203131B
:10024800071008008312031387140800831203138E
:1002580007150800831203130716080083120313F7
:10026800071008008312031387140800831203136E
:100278000715080083120313871508008312031358
:10028800071608008312031387120800831203134A
:10029800871008008312031307140800831203133E
:1002A8000711080083120313871108008312031330
:1002B80007120800831203138716080083018A11A6
:0202C80092287A
:02400E00C43CB0
:00000001FF
