:040000008A11852FAD
:100F0A0083018A11952F8312031387138C2F8D2F38
:100F1A006400831203138717922F932F640008002B
:100F2A00831603138701831203179F019E018430DE
:100F3A008312031387000D30F100FB30F000F00B31
:100F4A00A42FF10BA42FA92F8312031307110D301D
:100F5A00F100FB30F000F00BB02FF10BB02FB52FE2
:100F6A008312031307168A1188278A11831203131F
:100F7A0007128A1188278A118312031307128A110A
:100F8A0088278A118312031307128A1188278A1164
:100F9A008312031307128A1188278A11FE30F1007F
:100FAA003D30F000F00BD72FF10BD72FDC2F831237
:100FBA00031307160310003003180130F20005303E
:100FCA007202031CE92FEA2FEC2FF92FF92F8A114D
:100FDA0088278A110130F0007008F2070530720282
:100FEA00031CF82FF92FEC2F831203130715FD2F7B
:060FFA00FD2F8A11002802
:02400E00C43CB0
:00000001FF
