:040000008A11112828
:10000800FE00030883120313BA000408BB000A08A1
:10001800BC007F08BD008A11732B8A11A52B003004
:100028008A000408840A82070034013400340A3440
:10003800003464340034E83403341034273425346D
:100048006434003483120313AD002130A300230865
:10005800A60002292E08253A0319332834284028F7
:100068002E08A3002D088400230883138000013084
:10007800A3002308AD07022903100030031801303C
:10008800A7004B281629602860280229602800014B
:100098000138A0070001FF38200784008A111320C7
:1000A8008A11AE00003A03191629643A0319602828
:1000B8000D3A0319602802292608840083130008D2
:1000C800A900840A0008AA000230A3002308A60792
:1000D800AA1F6F2870287A280330A3002308A704D2
:1000E800A909AA09A90A0319AA0A7A28AE010314B8
:1000F800AE0D2E08053A031D822883288528A928D5
:10010800A9282E08A3002307013E84008A11132082
:100118008A11A4008A1113208A11A50025082A0231
:10012800031D98282408290203189B289C289E2828
:10013800A928A9280130A3002308AE072E08053AEC
:10014800031DA728A8288528A928270803390319E3
:10015800AE28AF28BB282D30A3002D088400230823
:10016800831380000130A3002308AD07BB282E08A5
:10017800A3002308A800F6280A30F8000030F90088
:100188002808A3002307013E84008A1113208A113E
:10019800F0008A1113208A11F1002A08F301F307ED
:1001A8002908F201F2078A11A8228A117108FB01B5
:1001B800FB077008FA01FA078A11F8228A117808F1
:1001C800303E83120313A4002408AE002E08A300B7
:1001D8002D0884002308831380000130A30023081E
:1001E800AD07F628FF30A3002308A8072808FF3A20
:1001F800031DFF280029C02802290229000101380F
:10020800A0070001FF38200784008A1113208A11F3
:10021800A3002308AE00AE08031D132914292E28B5
:100228001629162903102D08840000300318013000
:10023800831380001F29080083120313B7003708AF
:10024800B0003008B60037080239B600023A031D7C
:100258002E292F2938294D08FA3ECD004E080318BB
:10026800013E003ECE00382937080139B600013A70
:10027800031D3F29402949294D087D3ECD004E08E0
:100288000318013E003ECE0049292F088039B600E8
:10029800803A031D502951295A294D083E3ECD0068
:1002A8004E080318013E003ECE005A292F08403957
:1002B800B600403A031D612962296B294D081F3E8B
:1002C800CD004E080318013E003ECE006B292F08D2
:1002D8002039B600203A031D722973297C294D085C
:1002E8000F3ECD004E080318013E003ECE007C298B
:1002F8002F081039B600103A031D832984298D2947
:100308004D08083ECD004E080318013E003ECE00C1
:100318008D292F080839B600083A031D9429952914
:100328009E294D08043ECD004E080318013E003EAC
:10033800CE009E292F080439B600043A031DA529CA
:10034800A629AF294D08023ECD004E080318013EEC
:10035800003ECE00AF292F080239B600023A031D2D
:10036800B629B729C0294D08013ECD004E0803180B
:10037800013E003ECE00C02901304E06031DC629AD
:10038800F3304D06031DC929CA29DC292F08013974
:10039800B600013A031DD129D229DC294D08013EB6
:1003A800CD004E080318013E003ECE00DC29DC29B2
:1003B8000B30B0003008A0004E08A201A2074D087B
:1003C800A101A10731308A1126208A113130EC2988
:1003D8000800F6000310003003180130F500003063
:1003E800831203134E02653003194D02031CFD29C5
:1003F800FE290D2A7608840083130008F400740887
:10040800C9007608013E84000008F4007408CB0097
:100418002C2A00304E020B3003194D02031C152AFA
:10042800162A222A3030F4007408C900760884009D
:1004380083130008F4007408CB002C2A3030F40031
:100448007408C9003030F4007408CB002C2A2C2A18
:100458000310003003180130F70004307702031C42
:10046800362A372A392A572A572A7708493E8400D4
:1004780083130008F4007708453E840000087406DA
:100488000319472A482A4C2AF5010314F50D572A5F
:100498000130F4007408F70704307702031C552A6A
:1004A800562A392A572A7508013A031D5C2A5D2AFB
:1004B800842A8A11EF238A110310003003180130AF
:1004C800F70004307702031C6A2A6B2A6D2A842AF3
:1004D800842A7708493E8400831300088312031393
:1004E80087008A1114248A110130F4007408F70770
:1004F80004307702031C812A822A6D2A842A842ADE
:100508000310003003180130F70004307702031C91
:100518008E2A8F2A912AA72AA72A7708493E84007B
:1005280083130008F4007708453E840074088000AF
:100538000130F4007408F70704307702031CA52A79
:10054800A62A912AA72A08000030F5000030F600F4
:10055800710870040319B12AB22AF02AF7010314AA
:10056800F70DC22A01300310F00DF10DFF3E031DF7
:10057800B72A0130F4007408F707C22AF11FC52A08
:10058800C62AB62AC82AC82A01300310F50DF60D66
:10059800FF3E031DC92A71087302031DD52A70087E
:1005A8007202031CD82AD92AE12A7008F2027108BB
:1005B800031CF303F3027514E12A01300310F10C54
:1005C800F00CFF3E031DE22A0130F702031DED2A5D
:1005D800EE2AC82AF02AF02A7608F101F1077508F0
:1005E800F001F007F72A0800790878040319FD2AB2
:1005F800FE2A342BFD010314FD0D0E2B01300310D0
:10060800F80DF90DFF3E031D032B0130FC007C089B
:10061800FD070E2BF91F112B122B022B142B142B59
:1006280079087B02031D1A2B78087A02031C1D2BFC
:100638001E2B252B7808FA027908031CFB03FB0202
:10064800252B01300310F90CF80CFF3E031D262B57
:100658000130FD02031D312B322B142B342B342B8C
:100668007B08F901F9077A08F801F8073B2B08001D
:100678008316031387018601043085000430831232
:1006880003179E009F01073083120313C4007D30B7
:10069800C300C30B4D2BC40B4D2B8A11CA238A11DF
:1006A800073083120313C4007D30C300C30B5A2BD9
:1006B800C40B5A2B8B17831603130C17C0308B00EF
:1006C8008930831203139F001030831603139F0091
:1006D800831203139F14702B702B8A1111280C138B
:1006E8000030CD000030CE00831603131E0883129D
:1006F8000313B8003808AF001E088A1120218A1198
:1007080083120313B9003908BE003E088A11ED218F
:100718008A11273083120313B900F530B800B80BDB
:10072800932BB90B932B831203139F143D08FF00DF
:100738003C088A003B0884003A088300FE0E7E0EBF
:100748000900CD01CE018A1122248A11C5008A111F
:1007580023248A11C6008A1124248A11C7008A1109
:1007680025248A11C8008A1126248A11C9008A11F1
:1007780027248A11CA008A1128248A11CB008A11D9
:1007880029248A11CC0083018A113C2B831203137C
:1007980006138613A330C2005530C100C10BD22BFB
:1007A800C20BD22B38308312031387008A11062418
:1007B8008A110F308312031387008A1106248A11C5
:1007C80001308312031387008A1106248A118312C9
:1007D8000313861708008312031386130330F300EC
:1007E8009730F200F20BF62BF30BF62BFB2B0130B4
:1007F8008312031387008A1114248A1183120313A6
:100808008617080083120313061706130330C00067
:100818009730BF00BF0B0E2CC00B0E2C132C0800FA
:1008280083120313061706130330F1009730F00004
:10083800F00B1C2CF10B1C2C212C080078342E34C6
:0C0848007834563478342E34783456342A
:02400E00C43CB0
:00000001FF
