:040000008A11162E1D
:100C2C0083018A11262E8312031387131D2E1E2E69
:100C3C006400831203138717232E242E64000800EC
:100C4C000030FA00F900F6007608F800831203175A
:100C5C009F019E01831603138701FF3085008101DC
:100C6C0084308312031387000D30F700FB30F6003D
:100C7C00F60B3E2EF70B3E2E432E83120313071159
:100C8C000D30F700FB30F600F60B4A2EF70B4A2E10
:100C9C004F2E502E831203130519552E562E692EE6
:100CAC007A08013A031D5B2E5C2E692E79088A1195
:100CBC0077268A11F6007608F90003100030031825
:100CCC000130FA00692E83120313051D6E2E6F2E50
:100CDC00502EFA010314FA0D502E502E502E8A115C
:100CEC000028F500F508031D7C2E7D2E822E063083
:100CFC008A11D7268A11822E7508013A031D872E78
:100D0C00882E8D2E07308A11D7268A118D2E7508C4
:100D1C00023A031D922E932E982E03308A11D72659
:100D2C008A11982E7508033A031D9D2E9E2EA32E14
:100D3C0003308A11D7268A11A32E7508043A031D95
:100D4C00A82EA92EAE2E08308A11D7268A11AE2EC7
:100D5C007508053A031DB32EB42EB92E06308A1130
:100D6C00D7268A11B92E7508063A031DBE2EBF2E42
:100D7C00C42E09308A11D7268A11C42E0130F400F2
:100D8C007408F50707307502031CCD2ECE2ED42E19
:100D9C000310003003180130F500D42E7508D62E40
:100DAC000800F3007308013A0319DD2EDE2EF62E2F
:100DBC007308033A0319E32EE42EF62E7308053A52
:100DCC000319E92EEA2EF62E7308073A0319EF2EB3
:100DDC00F02EF62E7308093A031DF52EF62EFA2E78
:100DEC00831203130716FA2E7308031DFE2E162FFB
:100DFC007308023A0319032F042F162F7308043AB1
:100E0C000319092F0A2F162F7308063A03190F2FEF
:100E1C00102F162F7308083A031D152F162F1A2F93
:100E2C008312031307121A2F8A1119268A117308B9
:100E3C00031D212F392F7308023A0319262F272F50
:100E4C00392F7308033A03192C2F2D2F392F7308C0
:100E5C00063A0319322F332F392F7308073A031D23
:100E6C00382F392F3D2F8312031307163D2F73088C
:100E7C00013A0319422F432F5B2F7308043A0319CD
:100E8C00482F492F5B2F7308053A03194E2F4F2F0C
:100E9C005B2F7308083A0319542F552F5B2F7308D7
:100EAC00093A031D5A2F5B2F5F2F8312031307126E
:100EBC005F2F8A1119268A117308043A0319672FB8
:100ECC00682F7A2F7308053A03196D2F6E2F7A2F1E
:100EDC007308063A0319732F742F7A2F7308073A85
:100EEC00031D792F7A2F7E2F8312031307167E2F63
:100EFC007308031D822FA02F7308013A0319872F43
:100F0C00882FA02F7308023A03198D2F8E2FA02F34
:100F1C007308033A0319932F942FA02F7308083AE0
:100F2C000319992F9A2FA02F7308093A031D9F2F8D
:100F3C00A02FA42F831203130712A42F8A11192692
:100F4C008A117308083A0319AC2FAD2FB82F730808
:100F5C00093A0319B22FB32FB82FF308031DB72F7B
:100F6C00B82FBC2F831203130716BC2F0830730243
:100F7C000318C12FC22FC62F831203130712C62FBB
:100F8C008A1119268A118312031307128A11192642
:100F9C008A11FE30F1003D30F000F00BD32FF10B35
:100FAC00D32FD82F83120313071603100030031806
:100FBC000130F20005307202031CE52FE62FE82FFA
:100FCC00F62FF62F8A1119268A110130F0007008BD
:100FDC00F20705307202031CF42FF52FE82FF62FC1
:100FEC00FE30F1003D30F000F00BFA2FF10BFA2F30
:040FFC00FF2F0800BB
:02400E00C43CB0
:00000001FF
