:040000008A116B2FC7
:100EA200483465346C346C346F34203457346F34C6
:100EB20072346C346434213483120313061706131C
:100EC2000330F1009730F000F00B652FF10B652F26
:100ED2006A2F080083133930FD000730FE005130BD
:100EE200FF002D3084008A117E278A1183018A1126
:100EF200AF2F7E088A007F0882007A278A1180003D
:100F0200840A04087D0603190034FF0A0319FE0A45
:100F12007E2F8312031306138613A330F30055307A
:100F2200F200F20B922FF30B922F3830831203133D
:100F320087008A115D278A110F30831203138700FD
:100F42008A115D278A1101308312031387008A11E7
:100F52005D278A118312031386170800203084004C
:100F62002D30F4000408F5000C30F60074088400FB
:100F720083130008F700F40A7508840077088000DC
:100F8200F50AF60BB72F8316031387018601831226
:100F920003179E019F010730F5007D30F400F40B2A
:100FA200D02FF50BD02F8A118A278A110310003017
:100FB2000318013083120313AC000C302C02031C03
:100FC200E32FE42FE62FFD2FFD2F2C08203E840077
:100FD2008313000887008A115D278A110130F4000B
:100FE200740883120313AC070C302C02031CFA2F73
:0E0FF200FB2FE62FFD2FFD2FFD2F8A1100286B
:02400E00C43CB0
:00000001FF
